:020000022000DC
:1060000000000120756302005D6302005F6302000F
:106010006163020063630200656302000000000028
:1060200000000000000000000000000067630200A4
:1060300069630200000000006B6302006D630200F0
:10604000198A02006F630200258E02006F6302004E
:106050006F6302006F630200D58C02006F63020061
:106060006F6302006F6302006F6302006F630200E0
:106070006F6302006F6302006F6302006F630200D0
:106080006F630200DD7802006F6302006F6302003D
:106090006F6302006F630200D5BA02006F630200F3
:1060A0006F6302006F6302006F6302006F630200A0
:1060B0006F6302006F630200000000000000000038
:1060C0006F6302006F6302006F6302006F63020080
:1060D0006F6302006F6302006F6302000000000044
:1060E00000000000000000000000000000000000B0
:1060F00000000000000000000000000000000000A0
:10610000000000000000000000000000000000008F
:10611000000000000000000000000000000000007F
:10612000000000000000000000000000000000006F
:10613000000000000000000000000000000000005F
:10614000000000000000000000000000000000004F
:10615000000000000000000000000000000000003F
:10616000000000000000000000000000000000002F
:10617000000000000000000000000000000000001F
:10618000000000000000000000000000000000000F
:1061900000000000000000000000000000000000FF
:1061A00000000000000000000000000000000000EF
:1061B00000000000000000000000000000000000DF
:1061C00000000000000000000000000000000000CF
:1061D00000000000000000000000000000000000BF
:1061E00000000000000000000000000000000000AF
:1061F000000000000000000000000000000000009F
:10620000354936480A1A02D0072291438D4634494F
:1062100034480A1A06D00722914381F309880222E2
:1062200082F3148830483149314A00F044F831484B
:106230003149324A00F03FF831483249324A00F0E1
:106240003AF832483249334A00F035F83248334997
:10625000334A00F030F833483349344A00F02BF821
:1062600033483449344A00F026F83448344900228F
:1062700000F02CF833483449002200F027F8334866
:106280003349091A082902DB002202604160314AC1
:1062900090471F481F49884205D00268043003B464
:1062A000904703BCF7E700208646EC46002000211B
:1062B000294A9047FEE7884207D0521A05D0037852
:1062C00001300B700131013AF9D17047884202D098
:1062D00002700130FAE770470000012000E0002062
:1062E0000000012000000120C4DB0200282A002059
:1062F0004C300020D0630200D063020034C802009A
:10630000C4DB0200282A0020282A002074C90200C9
:1063100074C9020074C9020074C9020074C9020081
:1063200074C9020074C9020074C90200C3DB020010
:10633000E8E102004C3000204C3000204C300020BE
:10634000284D0020284D0020284D0020284D0020F9
:10635000286D00209D63020049A10200FEE7FEE7D0
:10636000FEE7FEE7FEE7FEE7FEE7FEE7FEE7FEE705
:1063700000F002B8FFF7FCBF0F484FF00701884359
:1063800085460E4880470E48016841F4700101605F
:10639000BFF34F8FBFF36F8FFFF732BF09480A4932
:1063A0000A4A884207D0521A05D0037801300B7090
:1063B0000131013AF9D17047000001200D8402003B
:1063C00088ED00E074C90200282A0020282A002055
:1063D0007047000007B5044B0093044A402300F0C7
:1063E00032F803B05DF804FBF16302004D30002089
:1063F0002DE9F84388461446B2B10F4B0F4E0325E2
:10640000002743F00109224608EB0701002004F0B1
:106410007DF80744241A48B933782BB14FF47A40F9
:10642000C847013D02D13570BDE8F88301233370C0
:10643000002CE8D1F8E700BF80C902004C300020F2
:10644000704704F097B8F0B595B01D46164608465B
:106450000C4601F0C5FD1A9B0D93CDE9086500259A
:106460002B46082205A920460A958DF82C500C953C
:1064700001F0D3FD079B0293069B03939DF8143014
:106480008DF8115003F00302012A1DD1BDF814202C
:10649000059DC3F3C203C2F383168DF81030B2001A
:1064A00008230EA9204601F0B8FDC5F3952508ABD9
:1064B0000093324602AB0EA9284600F045FB204669
:1064C00001F092FD15B0F0BD022AF8D1BDF81650CA
:1064D000C3F3C203C5F389158DF810300827082DC2
:1064E0002E4628BF08263B4632460EA9204601F01C
:1064F00094FDAD1B08AB02AA31460EA8374400F04C
:1065000087FB002DEBD1DAE708B5FFF79AFF0448C7
:10651000042100F083FA034B01225A7108BD00BF29
:1065200064C90200282A0020037813F0040216D060
:1065300003F00303012B03D0022B09D00120704785
:106540000A6800880232C0F3831002440A60F5E74B
:106550000B684288023303EB92130B60EEE71046A0
:10656000704700002DE9F04F87B000230446861CD9
:106570000DF107000F4615468DF8073001F040F881
:10658000404A51683960936803F580735B1A9246FC
:1065900002F21C4702F5836902F21448B3421AD38F
:1065A0000020002D69D004F00F039B0143F0050388
:1065B00063F30F00DAF80430DAB203321E444AF80B
:1065C00022009DF80700CAF8046001F03DF80120A0
:1065D00007B0BDE8F08F0121384601F034FA484693
:1065E00001F049FA404601F046FADAF80800029054
:1065F000C0B203300AEB800002A9FFF795FF029BAF
:1066000030BBDAB20AEB8202D16803919A1C0133E3
:10661000DBB20AEB83030292D3F80CB001F0030360
:10662000012B22D0022B15D08346404601F026FADA
:1066300010B1029BCAF808305946384601F003FAF7
:10664000DAF80830DAF8042003F580739B1AA5E71E
:10665000D8B2CEE7BDF80E30C3F3891303334FEA47
:106660001B4B02EB93030293DFE7BDF80C30C3F33F
:1066700083134FEA1B4B1344F5E7A40544F00600CF
:1066800098E700BF60310020064B074810B5002294
:106690001A7001F05EFC044610B9044801F01CFEBB
:1066A000204610BD60310020D8C80200BCC90200DD
:1066B00030B50A4C71B10A4A0A49121BD2080023AC
:1066C0009A4201D1002030BD31F82350854202D0DA
:1066D0000133F5E7034654F83300F4E740C80200FD
:1066E000D8C80200282A0020094B013903EBC0005A
:1066F000032909D8DFE801F00A02040604207047E4
:106700000079704740797047002070470220704739
:1067100040C80200034BD3E90130C31A5842584124
:10672000704700BF603100202DE9F04186B0FFF7CF
:10673000F1FF0546002840F0E680744CC4F81804C8
:10674000BFF34F8FA3680293DBB2033304EB8300E4
:1067500002A9FFF7E9FE029B18B1D4F81824002A19
:1067600055D0DAB2991C013304EB8202DBB204EBA0
:106770008303D268DB68049302F00303022B0392C5
:1067800002914FD1BDF80E306148C3F38917502FE5
:106790003E4628BF502666F38F1306F10801ADF878
:1067A0000E3001F0EEFB0546002800F0978001F066
:1067B00017FC002303A90822284601F024FC0299B3
:1067C000CB43DBB20133C9B20331B6EB830F4FEADF
:1067D000830804EB810122D908234246A6EB080670
:1067E000284601F010FCF6B24A4908F10803324687
:1067F000284601F008FC029B033703EB970702973A
:10680000D4F81834002B41D1D4F8106451E06268F8
:106810009A4299D8A260284606B0BDE8F0810823C4
:106820003246E5E7012B59D1BDF80C303848C3F3A7
:106830008311062928BF062161F3891302318900DB
:10684000ADF80C3001F09DFB0546002846D001F064
:10685000C7FB0023082203A9284601F0D4FB002629
:10686000BDF80C20C2F38312B300964203F1080373
:10687000C6D202994A1CC9B20331029204EB8101CB
:106880000422284601F0BFFB0136E9E7284601F063
:10689000ABFBFFF73FFF80F00100C5B2BBE7F36839
:1068A0005B7923B1336829461B6830469847F36803
:1068B0001E68002EF3D1284601F096FB0DF107006B
:1068C0008DF8076000F09CFED4F818340BB9029BD9
:1068D000A3609DF8070000F0B7FEDAE7D4F8104493
:1068E00054B90D4B0D480E49C01AC008000440F0C1
:1068F000020000F05DF8CCE7236820469B689847CB
:10690000E3681C68ECE7002585E700BF60310020E4
:10691000D8C802006C31002040C8020068C80200DC
:10692000A4C902002DE9F34704460E46924601A988
:10693000012218469946FFF715FE1B4F10B3019D23
:106940004FF00008AA1CC84508EB020123D11748E4
:10695000002101F055F880F31000000440EA1440D3
:10696000E4006B1C04F03804DBB2EDB244F0010427
:1069700007EB8303033544EA881444EA8624D8608D
:1069800047F825403B781BB1FFF7CEFE0028FBD12E
:1069900002B0BDE8F087C9B207EB81015AF8283090
:1069A000CB6008F10108CEE7603100207C35002083
:1069B00000231A46FFF7B6BF07B50123019201AACB
:1069C000FFF7B0FF03B05DF804FB07B5CDE9002386
:1069D00002236A46FFF7A6FF03B05DF804FB1FB56C
:1069E000CDE90123069B039301AA0323FFF79AFF36
:1069F00005B05DF804FB7FB5CDE90023089B029349
:106A0000099B03930A9B04930B9B05936A460623F9
:106A1000FFF788FF07B05DF804FB000030B50F49B1
:106A2000D1F8102403460020144634B9DC682071E4
:106A30004AB9C1F81034226030BDE4682579854236
:106A400006D02468F1E7D268116821601360F3E78B
:106A500001300A28E8D14FF0FF30EDE76031002027
:106A6000084A38B50123D2F8104413701D4604B902
:106A700038BDE3685D71236820465B689847E3682A
:106A80001C68F4E76031002007B503460846197A10
:106A9000052911D05B7A2BB1094A0A49019001F00E
:106AA00050F801980849019001F04BF8019803B0A3
:106AB0005DF804EB01F03AB8002AF8D0F2E700BF25
:106AC000C8C90200CDC90200A3D2020030B5C388F4
:106AD00085B004460D4633B1144A00921449154A54
:106AE000284601F02EF8217A05291DD0637A4BB192
:106AF000A088FFF7F9FD104B104953F820202846D5
:106B000001F01FF8227A0E4BA08853F8222003923E
:106B10000021FFF7CDFD039A0A490346284605B038
:106B2000BDE8304001F00DB805B030BDC8C9020065
:106B3000D8C90200D0C9020054CA0200CDC902005F
:106B400078CA0200F0C902002DE9F04385B01F4663
:106B50000C9D002395F80C902B7306460C4690462E
:106B600029463846FFF7B2FFB8F1060F09D8DFE82B
:106B700008F00412181F283340003146284600F060
:106B8000E0FF002229463846FFF77EFF85F80C908B
:106B900005B0BDE8F08322683146284600F0D1FFF9
:106BA000EFE7D4E900233146284600F0CAFFE8E7C2
:106BB000A36800933146D4E90023284600F0C1FFC2
:106BC000DFE7E3680193A36800933146D4E900232B
:106BD000284600F0B6FFD4E723690293E3680193E7
:106BE000A36800933146D4E90023284600F0A9FFAA
:106BF000C7E76369039323690293E3680193A3687A
:106C000000933146D4E90023284600F09AFFB8E704
:106C100008292DE9F74F80460E4617461C463CD8FA
:106C2000002593F80C901D7319461046FFF74EFF90
:106C3000DFF888A0DFF888B0AE4231D918F8052017
:106C40005946204600F07DFF0135082DF4D1194941
:106C5000194DDFF870A0204600F073FF4FF0000BD5
:106C60005E4522D918F80B207E2A05D810460192DD
:106C700005F098F9019A00B92E225146204600F0FD
:106C800060FF0BF1010BBBF1080FE9D10122214696
:106C90003846FFF7F9FE84F80C9003B0BDE8F08F9A
:106CA0005146204600F04DFFCEE72946204600F031
:106CB00048FFE6E704CA020002CA020000CA020056
:106CC000FAC9020006CA0200C30710B507D4F023B0
:106CD000054A4008145C23401943115410BD0901B2
:106CE000C9B20F23F4E700BF4836002030B5094B86
:106CF0001C78094B196800239C4202DC00221046D4
:106D000030BD11F83350854201EBC302F7D0013397
:106D1000F2E700BF183600205836002013B50446AD
:106D20000191FFF7E3FF38B143682BB10199204689
:106D300002B0BDE81040184702B010BD034B044834
:106D400019680022490800F05EBA00BF1C36002016
:106D50002036002010B5C0B2FFF7C8FF0446007807
:106D600001F0AEFF63785A1E53425341834208D16B
:106D7000044BD3E90023134303D1BDE81040FFF7D0
:106D8000DDBF10BD4036002037B54308354AD35C1F
:106D9000C2074CBF1B0903F00F0304460D46042B2A
:106DA00035D8DFE803F003252C383C0079B3012106
:106DB000FFF78AFF00230DF107008DF8073000F080
:106DC0001FFC0120A4F12003C4F12001264A20FA6F
:106DD00001F100FA03F30B43A040D2E90041204344
:106DE0000B43C2E900039DF8070000F02DFC0EE004
:106DF000002918BF02212046FFF766FF07E041B1D6
:106E00000321FFF761FF01212046FFF787FF03B051
:106E100030BD0121EFE70029F9D10421EBE709B1E9
:106E20000321E8E7FFF750FF29462046FFF776FFEA
:106E30000DF107008DF8075000F0E2FB0120A4F1EE
:106E40002003C4F12001084A20FA01F100FA03F3FB
:106E50000B43A040D2E9004124EA000021EA0303E9
:106E6000BFE700BF48360020403600202DE9F04142
:106E7000124E134F00243378A34208DC114BD3E9A0
:106E80000023134318D0BDE8F041FFF757BF3D681A
:106E900005EBC40815F8340001F012FF98F8013032
:106EA0005A1E53425341181A4142414115F83400C9
:106EB000FFF76AFF0134DEE7BDE8F08118360020F5
:106EC0005836002040360020092AF7B505460C4602
:106ED00016463CD901F034FED8B11E4B1E481D6049
:106EE0001E4B1F4F1C701F4B002110221E6005F00F
:106EF00000F91D4B00200021C3E90001013CE4B270
:106F00000326FF2C0BD1194A1948002100F070F913
:106F100003E001F0D7FD0028DFD003B0F0BD9DF8FD
:106F2000063015F834008DF8046005EBC40223F038
:106F300007038DF8063001A993788DF805303A469D
:106F400001F008FE013CE4B20028DAD0E5E70720B2
:106F5000E3E700BF583600204836002018360020EE
:106F6000556D02001C360020403600206D6E020078
:106F700098CA020070B5084D084E00242B789C4238
:106F800001D3002070BD3368012113F8340001F0F3
:106F900053FE0134F2E700BF1836002058360020B7
:106FA0001FB50021039001AA44F20100CDE90111AF
:106FB00000F004F805B05DF804FB000010B572B6EF
:106FC000FFF74EFDFFF7B0FB0028FBD1032001F0D7
:106FD00065FB104C104B1149E41AE408240444F0FA
:106FE0000100FFF7E5FC0E4B1B68DB0700D500BE78
:106FF0000C4944F00200FFF7DBFCBFF34F8F0A4956
:107000000A4BCA6802F4E0621343CB60BFF34F8FB0
:1070100000BFFDE768C8020040C802009CCA020029
:10702000F0ED00E0A8CA020000ED00E00400FA055F
:1070300049B152B1531E1A4007D18260016083806A
:10704000C260104670470E2070470920704710B587
:107050008468C2688388121B934208D3C2681340B5
:107060000268D154C3680133C360002010BD0420FE
:10707000FCE78268C3689A420AD08268838813401A
:107080000268D35C0B708368013383600020704713
:1070900005207047D0E90223D1E90201994208BFD7
:1070A00090422CBF012000207047000008B50B481B
:1070B00000F0FDFB0A4B0B49D3E900231218D1E97C
:1070C000000143F100038B4208BF824203D212F158
:1070D000807243F100031046194608BD302A002093
:1070E00060360020D836002037B505460C460A48E1
:1070F00001A900F010FC60B10570446001A90648C8
:1071000000F033FC18B1054800F0D6FB002003B0B6
:1071100030BD0420FBE700BFC4360020302A002029
:1071200038B5184B1B78044613B90025284638BDDE
:107130000028FAD0037F03F0FF05002BF5D0FFF7FE
:10714000B5FFD4E90223994208BF904214D32369C2
:1071500003B92377D4E90530984721690029E4D0A1
:10716000237F03F0FF05002BDFD0D4E90223521860
:1071700043F10003C4E902230348214601F0CBF8A0
:10718000D4E700BF68360020C4CA020013B5114B13
:1071900011491868019008231048582200F0A8FBF4
:1071A000044698B90E4A0F4801A900F071FA044646
:1071B00060B90C48012100F05DFB01230A4A09482F
:1071C000194600F0BFFA094B01221A70204602B09E
:1071D00010BD00BFC0CA02006C360020C4360020BB
:1071E00051720200302A0020FFFF7F006836002025
:1071F0003AB103685A614A1E514251411961002057
:1072000070470720704738B5037F04460D4683B9A1
:107210008261FFF74BFF2369401941F10001C4E986
:10722000020103B1256121460020BDE83840FFF787
:107230005BBF002038BD0023014603770120FFF724
:1072400053BF0000014800F032BB00BF302A0020CD
:107250002DE9F04F85B0804600F014FB40B15A4A4A
:10726000D2E9003113F1807341F10001C2E900312C
:107270000021404600F015FB38B1544E336823B16D
:107280003068FFF74DFF002333600121404600F0D6
:1072900008FB20B1FFF70AFF4D4BC3E900014D4841
:1072A0004A4F4D4EDFF8389103A900F06EFB0028DD
:1072B00045D1DFF82491454EDFF828A1484601F07A
:1072C00040F83368002875D07BB13368D0E90201FB
:1072D000D3E90223994208BF90422DD233681B7F25
:1072E0001BB13168484601F016F8484601F023F812
:1072F000D0E902B307460193FFF7D8FE019BBBEB31
:10730000000463EB0105012C75F1000345DBB4F5C6
:10731000350F40D3FFF796FF304A02444FF49603EF
:107320000021504600F02EFA00283ED1336813B9F0
:10733000404600F0FFF9376005B0BDE8F08F0378F4
:10734000012B1DD0022B09D14FF0000A304600F06E
:10735000F2FF002834D080F81CA0F7E73BB9416861
:107360000B7F23B901230B77304600F0D4FF03A92C
:10737000184800F035FB03A9164800F006FB96E715
:1073800041683B68994202D100233B60EFE73046F9
:1073900000F0DAFFEBE7BA68C0E70021504600F0E2
:1073A00076FA3846FFF7BCFE01E00D28F9D000233D
:1073B000336083E7002BBFD1404600F0BFF9BBE745
:1073C000012389F80030D2E760360020E036002043
:1073D000D8360020C4360020C4CA0200FFFFB40023
:1073E00068360020302A00200648074A03780749FB
:1073F000D35C012213B1043002F064B90C3001F007
:107400002DBF00BF382A0020543700200C37002041
:107410000648074A03780749D35C012213B10430B8
:1074200002F0FCB80C3001F0C7BE00BF382A0020C3
:10743000543700200D37002037B50578012D0BD0CB
:10744000022D2ED065B91E491E48FFF712FE0028F6
:1074500032D1FFF7DDFF03E0037A1BB9FFF7C4FF6A
:1074600003B030BD4368184C19782046FFF7EFFD94
:1074700080B18DF800500190144B68461B68984706
:10748000A168E368A2885B1A9A42E7D2104B0122F6
:107490001A70E5E7A268E3689A42F1D08DF800001F
:1074A000EAE7C3688DF800500193FFF79DFF074B93
:1074B00068461B689847D3E703238DF80030F6E74A
:1074C0000D370020FC360020E8360020E43600208E
:1074D000F8360020F0B51F46234B89B004461A60E9
:1074E0000D4600293DD08A8820480968FFF7A0FD95
:1074F000002834D1AA89A9681D48FFF799FD002802
:107500002DD11C4E0FCE6D460FC596E80F0085E8B5
:107510000F0063690693237C174A18488DF81C7086
:10752000003B18BF01238DF81430637C002B14BF7F
:107530000E2300238DF81530E3680293A3680393AC
:107540002368019369466368009301F0EBF930B951
:107550000B4B18702368013301D0FFF745FF09B0CA
:10756000F0BD0720FBE700BFE4360020E83600202E
:10757000FC360020D0CA020039740200382A0020EC
:10758000F836002070B5084D014608482E78FFF700
:1075900070FD044636B100232B70FFF725FF08B1BC
:1075A000FFF7FEFC204670BDF8360020E8360020CC
:1075B00010B501460E48FFF74AFD0446A8B90D482C
:1075C0000D4A0378D35C63B1043002F06FF860B900
:1075D0000A490748FFF74DFD38B9BDE81040FFF7ED
:1075E00017BF0C3001F02EFEF1E7204610BD00BFA2
:1075F000FC360020382A0020543700200D370020A8
:1076000070B5EFF3108672B60C4A946801239CB9EA
:1076100093600B4B0B4DD3F8801029401160C3F8D9
:107620008050D3F8841051604FF0FF32C3F88420AB
:10763000047006B962B670BD0370FAE71037002017
:1076400000E100E0FC06FFBD084B9A6810B55AB196
:1076500050B9EFF3108172B6054A1C6814605C687B
:107660005460986001B962B610BD00BF10370020A9
:1076700000E100E0435882B03BB10023435043583F
:107680000193019B012002B070471846FBE7000000
:10769000F8B5204B4479204D43F824201F4A204B55
:1076A00005EBC4049B1A2279DB081B0432B143F0BA
:1076B00002001C49FFF77CF90820F8BD02680C881D
:1076C000C2F8084590F904608A7804795201002EC6
:1076D000D2B219DB14498F1987F8002301227609E9
:1076E00004F01F0402FA04F441F82640427905EB45
:1076F000C201012445F832000C7143F003000B492C
:10770000FFF756F90020D8E7094904F00F040A559D
:10771000ECE700BF243700201C37002040C80200DF
:1077200078C80200F0CA020000E100E012CB0200BB
:1077300014ED00E0036801221A607047036801221B
:107740005A60704773B501F15005AD000068ADB2E5
:107750004FF480348C400026C0F80843C0F84843FA
:10776000465101F5A8714559019522F07F42019DCE
:1077700040F82120C0F844430BB1C0F8044302B0E4
:1077800070BD00002DE9F74F0D4622F07F440268DE
:107790004FF4803705F150068F408046B60002EB6B
:1077A0008500C2F84873B6B2C2F80873D2F804155F
:1077B00099464FF0000BD0F84035C0F8401542F81C
:1077C00006B05B1A9259009223F07F43012B009A76
:1077D0004FEA850A0CD1264B4FF4806043F0010339
:1077E0009847D8F8003043F806B09B590193019BA5
:1077F000D8F80010D1F80465C1F84473A31B23F036
:107800007F43012B1CD11A4B05F5A875013443F0B9
:10781000010341F825404FF480609847D8F80030C4
:10782000D3F804359E4209D1D8F800300020C3F8BF
:107830004473C3F8047303B0BDE8F08F0D20FAE77A
:107840008A44C9F1FF13CAF84045D1F80405221A49
:10785000013A22F07F4203F57F439342EED3002AA0
:10786000E2D10134CAF84045D1F804359842DAE74C
:1078700030CB020003680222C3F8442309B1C3F8E5
:107880000423704700684FF48271FFF7F3BE4FF492
:10789000803303FA01F10368C3F84813C3F80813EF
:1078A000704750318900006889B2FFF7E3BE036872
:1078B000D3F804057047000090F90430002B09DB71
:1078C0005A09012103F01F0301FA03F34032024970
:1078D00041F82230704700BF00E100E0024B034A4C
:1078E0001B681068184700BF243700201C37002091
:1078F00010B561B1B2FBF3F403FB1424A4B244B994
:10790000C0E9001484608281C381204610BD0E202E
:10791000FCE70920FAE737B550E8013F9DB2C4897A
:1079200025448489A54228BF2D1B0489A54202BF96
:10793000BFF32F8F002207E0C5EA030540E801549A
:10794000002CE9D14FF001028DF803200193019B37
:107950009DF803200B6002F0FF0322B10B88006842
:10796000184403B030BD1846FBE70A884B889A429A
:1079700009D150E8012FC2EA024240E80123002B5E
:10798000F7D1012070470020704737B550E8023F1B
:107990001FFAA3F5C488A54202BFBFF32F8F0022B0
:1079A0000DE0C48925448489A54228BF2D1BC3EA64
:1079B000054540E80254002CE8D14FF001028DF853
:1079C00003200193019B9DF803200B6002F0FF034D
:1079D00022B14B880068184403B030BD1846FBE75D
:1079E0000A884B889A4209D150E8022FC2EA224203
:1079F00040E80223002BF7D1012070470020704798
:107A000010B5034653E8000F0A4643E8002494F0FB
:107A1000000FF7D110BD10B5034653E8002F42EA1E
:107A2000010043E8000494F0000FF6D110BD10B53A
:107A3000034653E8000F00EA010243E8002494F0F3
:107A4000000FF6D110BD10B5034653E8002F02EB2E
:107A5000010043E8000494F0000FF6D110BD10B50A
:107A6000034653E8002FA2EB010043E8000494F022
:107A7000000FF6D110BD0121FFF7CDBF0021FFF7A8
:107A8000D6BF10B590B1D0E9012301689B1ADBB2D3
:107A90000A60013BDBB2FF2B026802D100201071AB
:107AA00010BD11684C1C14600B70F2E70E20F7E754
:107AB00037B5054600240DF107008DF80740FFF7A4
:107AC0009FFD2A686B68116899420ED9481E1060A4
:107AD00011F8014CEB68298A01FB0434AB68117979
:107AE0001B1ADBB2994238BF13719DF80700FFF7EC
:107AF000ABFD204603B030BD37B5054600230DF180
:107B000007000C468DF80730FFF77AFD2A681368E6
:107B1000591C1160E968641A298AB4FBF1F41C70DD
:107B20009DF80700FFF790FD03B030BD826810B5E7
:107B300004462AB143690168006998470023A3609D
:107B400010BD0EB403B5039921B104AB01AA019392
:107B500000F06EF802B05DF804EB03B07047826885
:107B600030B40468551C8560A154D0E901329A42B2
:107B700002D330BCFFF7DABF30BC70472DE9F84FB5
:107B80009846DDE90A43154682460F460A464FF0FD
:107B90000109AA420FD2C14538BFC14613F0010BFB
:107BA00001D16CB900240126B8F1010F1BD908F1ED
:107BB000FF386E43F8E709F10109B2FBF5F2E8E797
:107BC0009B070ED5B8F1000F0CBF30262026A1452B
:107BD000E9D2013C31465046FFF7C1FF002CF6D1F7
:107BE000E0E72026F3E7B7FBF6F39D42E1D9DFF8A3
:107BF0003C80B7FBF6F3504618F8031006FB1377EA
:107C0000FFF7ADFF3346AB42B6FBF5F6F1D2BBF161
:107C1000000F02D00CB1A14501D3BDE8F88F20219F
:107C20005046013CFFF79BFFF4E700BF36CB020054
:107C30002DE9F74F054617468846002900F0428196
:107C400018F8011B49B92B7B002B00F03B8128461B
:107C500003B0BDE8F04FFFF769BF252940F0B780BA
:107C6000002698F800302D2B424608F1010823D059
:107C7000302B24D02B2B25D000242A2B02F10101FC
:107C800023D13B681A1D1B683A601C440A461378CE
:107C90002E2B26D101324FF0000A104610F8011B9E
:107CA000A1F1300CBCF1090F1DD80A2303FB0A1304
:107CB000A3F1300A0246F0E746F00106D1E746F0AC
:107CC0000206CEE746F00406CBE711F8013CA3F12B
:107CD00030000928DBD80A2202FB0434303C0A4673
:107CE000CBE74FF0000A12F8011B01F0FB006828F7
:107CF0009046F8D0782909D86F290CD8632962D02A
:107D000022D8252963D0582900F0888098F80030BF
:107D1000002B95D197E770390829F7D801A353F8BC
:107D200021F000BF9F7E02000D7D02000D7D02004C
:107D30002D7E02000D7D02000B7E02000D7D0200F3
:107D40000D7D02001D7E0200642901D06929DDD16C
:107D50003A68D2F80090111D89EAE9723960A2EB05
:107D6000E9724FF0010B092A35DCD34538BFD34601
:107D70002CB1B9F1000F01DB720700D5013CB3074C
:107D800002D5BAF1000F03D0F00701D44CBB002498
:107D9000B9F1000F2DDAC9F100092D212846FFF7AE
:107DA000DEFE06F00302022A04D1BAF1000F01D16F
:107DB0001CBB0024CDE9004653460A22494628460A
:107DC000FFF7DCFEA2E73B681A1D19783A602846E7
:107DD000FFF7C5FE9AE70A230BF1010BB2FBF3F2A2
:107DE000C1E7A345D4D220212846013CFFF7B7FEC6
:107DF000CCE77107D5D52B21D0E7A345DAD23021C6
:107E00002846013CFFF7ABFED2E73968CDE90046D2
:107E10000A1D3A6053460A220968D0E739680A1DEC
:107E20003A60CDE9004653461022F5E73B681A1D3B
:107E30003A6016F00106D3F8009028D1B9F1000F8E
:107E400003D0484604F0AAF90646B44200D904BB60
:107E500009F1FF3919F8011F00293FF457AF2846EF
:107E6000FFF77DFEF6E728460136FFF778FE19F8A2
:107E700006100029F7D1A642BFF448AF002C3FF40A
:107E800045AF20212846013CFFF769FEF3E70026B5
:107E9000EDE720212846013CFFF761FED5E73B686E
:107EA0001A1D3A60302128461C68FFF758FE7821D9
:107EB0002846FFF754FE00220823CDE90032214670
:107EC00010227CE703B0BDE8F08F00BF2DE9F84F2A
:107ED000B0F806A04579D2F800B09DF828900AFBCA
:107EE00005F5043D88460BEB0301A94203F10404A8
:107EF00088BFA5EB030BB4FBFAF607460AFB164452
:107F0000C2F800B04EB9AAEB04055D4528BF5D4636
:107F1000BBF1000F04D1BDE8F88F3F68013EF1E7E7
:107F2000043408EB06003C442A46B9F1000F0DD09A
:107F30002146ABEB050B04F0B3F8DA452E443F685D
:107F400055464FF0000428BF5D46E1E70146204654
:107F5000EFE7FFF796BDF8B546790146721E054674
:107F6000002393422D6803D30024A64202D8F8BD13
:107F70000133F6E70F682846FFF7BEFD01343946A6
:107F8000F3E72DE9F843068ACD1C0746FFF790FD7D
:107F9000043E35440446B5FBF6F5F0B14FF480736A
:107FA000EDB28380C680013D076081464FF0000836
:107FB000A84512D23846FFF77BFD064648B16379E3
:107FC0000133637108F10108C9F8000007608146B8
:107FD000EEE72046FFF7BFFF34462046BDE8F883B2
:107FE00001210430FFF72FBD10B5012104460430F4
:107FF000FFF735FD10F0FF0F04D12046BDE810401B
:10800000FFF7A9BF10BD1FB503920022009203AA7B
:10801000FFF75CFF05B05DF804FB1FB5039201227A
:10802000009203AAFFF752FF05B05DF804FB33DFAF
:10803000704741DF70470000064B10B500241C70EC
:10804000054B1C60BFF35F8F0449054800F04DF9F4
:10805000204610BD313700203437002050CB0200BD
:108060002837002007B500230DF107008DF80730F1
:10807000FFF7C6FAF1EE103A23F09F03E1EE103A53
:10808000BFF35F8F094B4022C3F884219DF807009E
:10809000FFF7DAFA03F004FD20B1FFF7CAFF03B0DF
:1080A0005DF804FB20BF40BF20BFF8E700E100E01F
:1080B00070B5264D044601212846FFF7A1FCBFF309
:1080C0005F8F2E4638B9042C0AD0214B1A781AB18A
:1080D000BFF35F8F286070BD1E4A147001221A70B2
:1080E0001D4C1C4D6368BBB9FEF7BAFCFEF71CFBC8
:1080F0000028FBD1174B1B78023B012B14D8BFF390
:108100004F8F1649164BCA6802F4E0621343CB60E6
:10811000BFF34F8F00BFFDE71B682878984788B1F1
:10812000204600F0ECF8DDE703F0BAFC08B1FFF7F9
:108130007EFF4FF080430122C3F80025BFF34F8F2D
:1081400020BFFDE7BFF35F8F3060C4E73437002006
:1081500031370020303700202837002000ED00E0C4
:108160000400FA05026813685268934291BFD01A5E
:1081700080680130801888BFC01A70470368816822
:108180001A685B688B4234BF01330023D31A58420C
:1081900058417047F7B5002304460DF107000D461E
:1081A0008DF80730FFF72CFA2046FFF7E7FF10B1F4
:1081B000237C002B3CD12268A66853685168B142E9
:1081C00034BF01310021516030B11168A068814293
:1081D00034BF013100211160E2686068511E072937
:1081E00020D8DFE801F004101F141F1F1F182A7881
:1081F000C2542046FFF7B6FF23689A68824200D235
:108200009860002415E02A8820F81320F1E72A68F6
:1082100040F82320EDE7D5E9006700EBC300C0E993
:108220000067E6E7294602FB030003F039FFE0E7B9
:1082300004249DF80700FFF707FA204603B0F0BDBD
:10824000036818685B68C31A58425841704773B591
:10825000002305460DF107000C4616468DF8073041
:10826000FFF7CEF92846FFF7EBFF002832D1296847
:108270000B682EB90A68A868824238BF561C0E6087
:10828000EA686968501E07281ED8DFE800F0040E6F
:108290001D121D1D1D16CB5C237000249DF80700C8
:1082A000FFF7D2F9204602B070BD31F813302380B9
:1082B000F3E751F823302360EFE701EBC301D1E985
:1082C0000023C4E90023E8E703FB0211204603F082
:1082D000E7FEE2E70524E1E7836800225A60C3E98C
:1082E00004229A60DA601A6070470B684A6843603B
:1082F000934208BF0023016008BF43607047436892
:1083000043B10268916852680B449342436004BFD2
:1083100000234360704770B5446806460D462068E8
:1083200018B1B3682946984718B923682B602560AF
:1083300070BD2468F3E74368186808B102681A60E2
:1083400070474368186870474368186800B97047F9
:10835000884203D102681A60012070470346006812
:10836000F4E7000010B50D49A1F59472914201D8CF
:1083700000200FE08C1AE30F03EBE4035B1002EB29
:10838000C30452F83330834205D802D204F1080204
:10839000ECE7606810BD2146E8E700BF5CD0020052
:1083A00008B5FFF7DFFF024B002808BF184608BDDD
:1083B0001FCF020010B50446C0B2FFF7F9F82046FF
:1083C00010BD0000044B1868421C04BF034B187812
:1083D000831F58425841704730010010E00F00F0F1
:1083E000074B1B78062B09D1064B1B68C3F30313FD
:1083F000033B032B02D8044AD05C7047002070472F
:10840000E00F00F0E80F00F064D0020008B5FFF7BD
:10841000D9FF28B1834B844A1B68C3F3042313603C
:10842000FFF7DEFF10B1814B814A1A60FFF7CAFFE8
:1084300028B1804B804A1B68C3F342331360FFF7B7
:10844000CFFF20B17D4AD36823F08073D360FFF75C
:10845000B9FF40B14FF080430022C3F80C21C3F8AC
:108460001021C3F83825FFF7BBFF10B1744B03226E
:108470001A60FFF7B5FF40B1724B05221A60012266
:108480009A6700229A603F225A606F4B1A68511C0B
:108490000BBF6E4B6E4B1A781B6802BF08331B680C
:1084A000C3F30313062A4DD1033B032B03D8694AB8
:1084B000D35C002B46D04FF08052674BD2F80414A7
:1084C000C3F82015D2F80814C3F82415D2F80C14F8
:1084D000C3F82815D2F81014C3F82C15D2F81414C8
:1084E000C3F83015D2F81814C3F83415D2F81C1498
:1084F000C3F84015D2F82014C3F84415D2F8241458
:10850000C3F84815D2F82814C3F84C15D2F82C1427
:10851000C3F85015D2F83014C3F85415D2F83414F7
:10852000C3F86015D2F83814C3F86415D2F83C14B7
:10853000C3F86815D2F84014C3F86C15D2F8442477
:10854000C3F87025FFF73EFF28B1444B444A1B682F
:1085500003F04F031360FFF735FF48B14FF080433E
:10856000D3F80024D20744BF6FF00102C3F80024FF
:10857000354B1B68062B0CD1354B1B68033B032B7B
:1085800002D8384AD35C23B1374A136843F4806376
:108590001360364AD2F8883043F47003C2F888304A
:1085A000BFF34F8FBFF36F8F4FF01023D3F800222C
:1085B000002A03DBD3F80432002B2FDA2C4B0122E4
:1085C000C3F80425D3F80024002AFBD04FF0102272
:1085D0001521C2F80012D3F80024002AFBD04FF076
:1085E00010231522C3F80422214B1A46D3F8001495
:1085F0000029FBD00021C3F80415D2F80034002B69
:10860000FBD0BFF34F8F19491A4BCA6802F4E062DE
:108610001343CB60BFF34F8F00BFFDE7164B174AE4
:108620001A6008BD240300104035014074C00740A3
:108630000DF0ADBA440200103C050040F0ED00E042
:10864000A00500401056004030010010E00F00F07F
:10865000340100105CD0020000C00040580200103D
:10866000E40E004060D002003C17004000ED00E046
:1086700000E001400400FA054C2A00200090D003DD
:10868000054A4FF0A043105CD3F8043523FA00F0FC
:10869000C04300F00100704768D00200044B1A5C30
:1086A000012393404FF0A042C2F80C35704700BF41
:1086B00068D00200044B1A5C012393404FF0A042A3
:1086C000C2F80835704700BF68D0020008B5002026
:1086D000FFF7F0FF0120FFF7EDFF0220FFF7EAFFB1
:1086E000BDE808400320FFF7E5BF08B50020FFF70D
:1086F000D5FF0120FFF7D2FF0220FFF7CFFFBDE833
:1087000008400320FFF7CABF074A4FF0A041105CA2
:10871000D1F804350122824022EA03001340C1F857
:108720000805C1F80C35704768D002004FF0A0432F
:10873000D3F810056FEA502000F0010070470938A7
:1087400018BF4FF0FF30704709207047C20708B5C7
:1087500001460CD54FF0A0430322C3F81027C3F8FD
:108760006C27C3F87027C3F87427FFF7AFFF8B0798
:1087700042BF4FF0A0430C22C3F8242708BD0000DD
:1087800038B5074C051E04F1080318BF1C462368C2
:108790002BB11A6822605B6828469847F7E738BD16
:1087A0004037002020B9054B01225A70FFF7E8BF7F
:1087B000012802D1014A9070F8E77047383700204D
:1087C00020B9034B01225A70FFF7DABF704700BF90
:1087D0003837002038B50E4C2378B3B90D486360A4
:1087E000A3602361E36000F0E5F8054603F058F963
:1087F00008B900F0EBF801232370074BD3F80034DD
:108800000BB10123A370284638BD8525F5E700BFCD
:1088100038370020A58702000000014037B50D4C15
:1088200000230DF107008DF80730FEF7E9FEE3683D
:10883000013BE360E36833B9074BD3F8005415B943
:1088400000F0D6F8A5709DF80700FEF7FDFE03B016
:1088500030BD00BF3837002000000140012813B5AB
:108860000CD0032820D038B9124B0122C3F8802045
:10887000BFF34F8FBFF36F8F02B010BD0E4C0023BC
:108880000DF107008DF80730FEF7BAFE23780BB91B
:10889000FFF7A0FFE3689DF807000133E3600123C1
:1088A000A370FEF7D1FEE7E700F090F8FFF7B6FF00
:1088B000E2E700BF00E100E0383700201FB5037891
:1088C0008DF800304368019383688DF80830C368E1
:1088D000054A0393054B684653F8213052F821109E
:1088E000984705B05DF804FB4C3700205037002056
:1088F0001FB503788DF800304368019383688DF8C5
:108900000830C368054A0393054B684653F8213085
:1089100052F82110984705B05DF804FB4C37002051
:1089200050370020F0B5194B90F800C091F81DE0C9
:1089300043F82C20164B16460A6943F82C20154B99
:1089400003F80CE00C4607460FCC89B06D460FC506
:1089500094E80F0085E80F00CDF810C0BEF1000FBD
:1089600009D0002E0C4A694608BF3246381D00F077
:1089700091FD09B0F0BD002E084A694608BF324695
:1089800007F10C0000F062FBF3E700BF5037002056
:108990004C37002054370020BD880200F1880200C7
:1089A00000F18040002382B0036003680193019BC3
:1089B00002B07047044A137923B9012110609180F5
:1089C000184670478520704758370020074B1A68B3
:1089D000D20704D4C02283F8002301221A604FF08A
:1089E00080430122C3F81825704700BF00E100E072
:1089F0004FF0804208B50223C2F808334FF482706A
:108A0000FFF7CEFF034B01211960D2F81834DB03C6
:108A1000FBD408BD0C000040124B1B6810B573B1AD
:108A20004FF48070FFF7BCFF4FF080430122C3F882
:108A300008230D4B587910B95A711B6898470B4B96
:108A40001B6873B14FF48270FFF7AAFF4FF08043A9
:108A50000222C3F80823044BBDE810401B68012024
:108A6000184710BD000100405837002004010040A5
:108A700000F1804000F5C040002382B0036003682D
:108A80000193019B02B07047800000F1A040D0F834
:108A9000002722F44032C0F80027D0F8003743EA1C
:108AA0000141C0F800177047054B4FF0FF3207280F
:108AB00043F8202084BFC01880F84820704700BFCA
:108AC0006037002010B51A4C94F858306BBB4FF04B
:108AD000FF3222FA03F1C90748BFE11803F101038D
:108AE00048BF81F83020202BF3D10021C8B2FFF716
:108AF000DBFF01310C29F9D1042200210D4803F0DC
:108B0000F8FA0D4BC02283F8062340221A604FF476
:108B1000BE70FFF7ADFF094B4FF00042C3F80423CE
:108B2000012384F85830002010BD0820FCE700BF66
:108B300060370020B437002000E100E00060004012
:108B4000034B93F85800003818BF0120704700BF4E
:108B500060370020F0B5364D2C1894F93040002CC9
:108B600064DA8C78C4F34004002C0BBF0823002384
:108B70000C260826B34201D10420F0BD55F823701D
:108B800001373FD12E1845F8232086F8303014B92C
:108B9000EA1882F848008A78540713D4D60733D5E8
:108BA000820002F1A042D2F8004724F00204C2F889
:108BB0000047204EC20800F007070124BC40B75C04
:108BC0003C43B4548A780C7812F0020225D09B0002
:108BD00003F1804303F5C0430202D3F8101521F4DA
:108BE000473121F44071C3F810152404D3F810154F
:108BF00002F4F85204F4403422430A43C3F8102527
:108C00000020BAE70133B5E74C7800F5E0724FF089
:108C1000A046A40046F82240CBE7083B2B4493F83B
:108C2000501041EA841483F85040E9E70820A4E793
:108C300060370020B437002038B51F4C251895F94F
:108C40003020072A16DD224492F848309B09032B76
:108C50000BD14FF0A043D3F81015C14001F0010132
:108C60000231BDE83840FFF70FBF012B0CBF0221D6
:108C70000321F6E7D3B2072B1CD8930003F18043FE
:108C800003F5C043D3F8100540F00100C3F8100508
:108C900002F14000800080B2FFF7EAFE51B195F981
:108CA000303054F823302BB1012303FA02F2034B86
:108CB000C3F8042338BD00BF6037002000600040C7
:108CC0004FF0A043D3F8103523FA00F000F0010074
:108CD000704700002DE9F74F00244E4D01944FF4EA
:108CE0008072012102F1804303F5C04390B21B68FA
:108CF000012B06D1D5F804330B4202D0FFF7B8FEA2
:108D00000C430432B2F5907F4FEA4101EAD1424B65
:108D10001B68012B0CD14FF4BE70FFF7A9FE4FF07A
:108D2000A04344F00044D3F820250192C3F8202545
:108D300014F0FF0F1AD0394F00250126344210D00D
:108D4000AB0003F1804303F5C043D3F81005D3F81B
:108D5000101557F8253023B1C1F30141C0F30420A9
:108D600098470135082D4FEA4606E7D1002C48DA2E
:108D70002A4D4FF0A0482A4E4FF00009012716F95E
:108D8000013B5A1C31D0C3F3C20202A90A44DCB22F
:108D900012F8042C03F03F0A03F0070307FA03F369
:108DA0001A4222D00AF5E073504658F82330C3F334
:108DB000014BBBF1020F0CBF03210221FFF764FE40
:108DC00007FA0AF3C8F8203505EB0A0393F93030A7
:108DD00055F823304BB1A109032904D0BBF1020F90
:108DE00012D1012901D15046984709F10109B9F181
:108DF000040FC4D1D8F820350193C8F82035002BD2
:108E0000B9D103B0BDE8F08FBBF1030FEDD102295A
:108E1000E8E700BF006000407C6100406037002050
:108E2000B0370020014B1B68184700BFBC3700203B
:108E30000E4B984237B50C4602D0002003B030BD2F
:108E400000230DF107008DF80730FEF7D9FB084B22
:108E50001D7915B901221C601A719DF80700FEF7F3
:108E6000F3FB002DE9D01120E8E700BF002000400F
:108E7000BC3700200023435082B043580193019B2C
:108E800002B070470A4610B54FF48E71FFF7F2FF3B
:108E9000136A9168C95C136A01331362C0F81C1528
:108EA00010BD024608B500684FF49271FFF7E2FF6B
:108EB0004FF484711068FFF7DDFF136801221A6018
:108EC00008BD8B690A4610B54FF4847123B9FFF7CA
:108ED000D1FFD0F8183510BDFFF7CCFF536AD16829
:108EE000D0F81805C854536A01335362F3E7000001
:108EF0001FB501238DF80030044BCDE90110D3E9F3
:108F000000126846904705B05DF804FBC4370020A6
:108F100030B54C48D0F8043313F4007F85B00546D3
:108F20004DD0D0F82431002B49D04FF49271FFF787
:108F3000A1FF4FF40173C0F80833434B93F8292085
:108F40000AB9012242603F4902228DF80020D1F87F
:108F50008024C1F8802403929A690292DA6801920F
:108F60000022C3E906226846D3E90012904735483B
:108F7000D0F81C315BB134494A690B6A9A420A46FF
:108F80004AD991F82830002B46D1FFF77BFF2D48B6
:108F9000D0F844318BB14FF4A271FFF76BFF2A4B2D
:108FA00093F829200AB1012202609A692AB10022AD
:108FB000586AD9689A61FFF79BFF05B030BDD5F8B4
:108FC00004335B07D3D5D5F80831002BCFD01E4C26
:108FD0001C482146FFF775FF636AA2699A4223463F
:108FE000C5D1E269E1684AB12369E3600023606AA0
:108FF000A261E3616362FFF77BFFB8E794F8292081
:109000000AB901226A600F4A4FF40170C2F80803DE
:109010000022586A9A61EEE70A484FF48E71FFF712
:1090200029FF5369002BB2D0516902910023916846
:109030008DF80030019153616846D2E900139847DA
:10904000A5E700BF00200040C43700202DE9F84309
:10905000544B057991462C2202FB0532064692F8C4
:109060002A200C469846002A40F098804E49006815
:10907000FFF7DEFE0746002840F092802168336843
:10908000481C0BD04FF0A04001228A40C0F80825B0
:1090900001F5E0724FF0030C40F822C06068421CFA
:1090A0001FBF00F5E0724FF0A04C4FF0000E4CF8DF
:1090B00022E0A269C3F8242594F814C0627DBCF1B3
:1090C000010F4CEA0202C3F86C25C3F81405C3F87B
:1090D0000C151DD1A1684A1C1FBF01F5E0724FF0AD
:1090E000A0404FF0000C40F822C0E268501C0BD0AA
:1090F0004FF0A04C01209040CCF8080502F5E0703C
:109100004FF0030E4CF820E0C3F80825C3F8101503
:109110002C236B4308EB0302C2F80490226948F841
:109120000320B9F1000F21D03068247F4FF48E71F5
:10913000FFF7A0FE4FF4A2713068FFF79BFE326884
:109140001A4BC2F80433110B42F307326301002AB1
:10915000DBB21EDB1648841884F800330123520961
:1091600001F01F0103FA01F140F8221033680422D4
:10917000C3F800252C2303FB05830022C3E9062244
:1091800083F829205A61012283F82A203846BDE855
:10919000F883084A01F00F015354E7E70827F5E781
:1091A0001127F3E7C4370020118F0200800002006E
:1091B00000E100E014ED00E02DE9F047204F90F8C9
:1091C00004904FF02C0808FB097405466669002ED0
:1091D00034D162610068A16026624FF48E7184F818
:1091E0002860FFF747FE2868012383602146FFF7C8
:1091F00049FE6368A0468BB92868D4F814A0236A96
:109200009A4511D82A68D2F81C31002BFBD00123D3
:10921000D3602C2303FB097300225A613046BDE85A
:10922000F08794F828303BB9D0F81C31002BF8D0E7
:109230004146FFF727FEE2E70F26EAE71126EDE7B2
:10924000C43700200379044A2C2101FB0323586909
:10925000003818BF01207047C43700202DE9F843BB
:10926000394F05792C2303FB057306465C6824B14E
:1092700003684FF40170C3F808032C2303FB057344
:10928000986950B1D86900283ED024B133684FF4B2
:109290000172C3F80423112433E09A61D960586243
:1092A000D8612C2303FB057393F829301BB910B93F
:1092B0003046FFF7F6FD4FF02C0909FB05783068C2
:1092C000D8F80430002B34D14FF4A271C146FFF717
:1092D000D1FD3068D0F82431D0F80821D0F84441CD
:1092E000B2B90CB9002BF4D02C2202FB0575002278
:1092F000AA6123BB2CBB95F8291033680122B1B1B8
:109300001A602046BDE8F8831961DA610120C8E7D8
:10931000002BE9D1002CE7D14946FFF7D2FDD8F860
:109320002430D8F818209A42D3D82346DCE75A6074
:10933000E7E74FF40173C0F804330024E1E70324A6
:10934000DFE70F24DDE700BFC437002000234350D0
:1093500082B043580193019B02B070471FB50123AF
:109360008DF80030044BCDE90110D3E900126846B6
:10937000904705B05DF804FBF03700207FB5434A05
:10938000D2F82461002E60D010464FF49271FFF79E
:10939000DDFF02238DF80030D2F88034C2F880342B
:1093A0000393D2F83C350293394BDA6801920022DC
:1093B000C3E906226846D3E9001290473348D0F843
:1093C000443173B14FF4A271FFF7C0FF304B9A697B
:1093D0003AB10022C3E90622D968D0F83C05FFF76C
:1093E000BDFF2A48D0F82031ABB14FF49071FFF7A0
:1093F000ADFF0123C360264B5A6962B1D0F84C150A
:109400000291002299688DF8002001915A61684606
:10941000D3E9001290471D48D0F858319BB14FF462
:10942000AC71FFF793FF1A4B5A6962B1D0F84C1533
:109430000291002299688DF8002001915A616846D6
:10944000D3E90012904704B070BDD2F81031002B60
:10945000B4D04FF488711046FFF778FF0C4BD2F868
:109460003C0599698842A9D1DC69D96864B1D2F810
:10947000005225F02005C2F800521A699C61DA609A
:10948000DE61FFF76BFF99E79C61FAE7002000407F
:10949000F03700202DE9F8435B4B067991462422F2
:1094A00002FB0632044692F820200D469846002A18
:1094B00040F0A58055490068FFF7BAFC0746002830
:1094C00040F09F8029682368481C0BD04FF0A040D3
:1094D00001228A40C0F8082501F5E0724FF0030C24
:1094E00040F822C06868421C1FBF00F5E0724FF0D0
:1094F000A04C4FF0000E4CF822E0AA69C3F82425D6
:1095000095F814C06A7DBCF1010F4CEA0202C3F861
:109510006C25C3F80C15C3F814051DD1A9684A1CA5
:109520001FBF01F5E0724FF0A0404FF0000C40F873
:1095300022C0EA68501C0BD04FF0A04C0120904094
:10954000CCF8080502F5E0704FF0030E4CF820E06F
:10955000C3F80825C3F810152423734308EB03024E
:10956000C2F804902A6948F80320B9F1000F30D0FE
:1095700020682A7F4FF48871FFF7E8FE20684FF4D7
:109580009071FFF7E3FE20684FF49271FFF7DEFE63
:1095900020684FF4A271FFF7D9FE4FF4AC71206838
:1095A000FFF7D4FE23681A49C3F80413190B43F3D9
:1095B00007335201002BD2B21CDB1648C51885F8C0
:1095C000002301225B0901F01F0102FA01F140F8BA
:1095D000231023680822C3F80025242303FB0683F5
:1095E0000022C3E906225A61012283F8202038466E
:1095F000BDE8F883084B01F00F015A54E9E708274A
:10960000F5E71127F3E700BFF03700207D93020054
:109610001003420000E100E014ED00E001F06043BF
:10962000B3F1005F2DE9F041064638D11E4B0779B2
:10963000242505FB073598466C69002C31D16A61F9
:109640000068A9604FF49071FFF780FE4FF4AC7191
:109650003068FFF77BFE33686A69A968C3F8441570
:10966000C3F8482501229A606A68AAB9D3F8202174
:10967000D3F858411AB9002CF8D00F2407E0002C79
:10968000FBD10122DA60D3F85821002AFBD0242331
:1096900003FB078700237B612046BDE8F08110248F
:1096A000FAE71124F8E700BFF03700200379044AF5
:1096B000242101FB03235869003818BF012070479B
:1096C000F0370020F8B501F06043B3F1005F0446C5
:1096D0000F465ED10379304D242101FB03514968C7
:1096E00021B100684FF40476C0F80863242000FB21
:1096F00003539E6956B1D869002839D021B1236837
:109700004FF40472C3F80423112030E09A61DF6043
:10971000DE6120684FF48871FFF718FE20684FF46F
:10972000A271FFF713FE2368C3F83475C3F8382518
:1097300016BB01221A602179242202FB01525268D1
:109740000ABBD3F81041D3F84421D3F824011443C1
:1097500002D10028F5D02246242303FB0155002323
:10976000984218BF03209A42AB6118BF0F20F8BD82
:109770001F61DA610126CCE7D3F8002242F0200213
:10978000C3F80022D7E74FF40472C3F80423002083
:10979000EDE71020EBE700BFF03700200220FEF7D6
:1097A000B3BF000008B5094B1B7853B10020FEF78A
:1097B00081FF0120FEF77EFFBDE808400320FEF791
:1097C00079BFBDE80840FEF781BF00BF1538002013
:1097D000F8B57B4C237805461BB100232370FFF7B7
:1097E000E1FF172D00F28880DFE805F00C17174322
:1097F00054657680888D888D959A9A9A9A9AC4C96C
:10980000D1D9E4E4FFF7CEFF6E48FDF714FD6E4BAF
:10981000002204461A702046F8BD0020FEF730FFF3
:10982000F8B10020FEF746FF022D0CBF4FF4E161B6
:109830004FF47A61644B1D704FF400404FF47A741A
:109840000025E0FB01454FF4FA620023204629463B
:1098500002F0B4FA00220146BDE8F8405948FDF78D
:10986000D2BCFEF71BFF022D0CBFC8214FF4C871FC
:10987000E0E70020FEF704FF40B10020FEF71AFFEA
:109880004FF44871504B03221A70D5E7FEF706FFDC
:10989000C821F7E70020FEF7F3FE38B10020FEF7FD
:1098A00009FF4FF47A61484B0422EDE7FEF7F6FE1C
:1098B0004FF4C871F7E70020FEF7E2FE48B1002040
:1098C000FEF7F8FE404B05221A7040F6CD4100220B
:1098D000C2E7FEF7E3FEF5E70020FEF715FF3A4B7F
:1098E00006221A70002240F26661B5E70020FEF7FA
:1098F000D5FE354B07221A7000248CE7012020701A
:10990000FEF702FFEEE701202070FEF7FDFE0022C9
:109910004FF40051A0E7FEF7E8FE2B4B0C22EAE7DC
:109920002A482B4EFDF787FCD5F1110504461CD0C3
:10993000D8B9012D13D0C8235D434FF400474FF42D
:109940007A7000214FF4FA620023C7FB050102F090
:1099500035FA224601461D48FDF755FC0446022013
:10996000FEF79CFE0123337055E70220FEF7A2FEAE
:109970000023F8E7FFF716FF134B1222BBE7FFF7B0
:1099800011FF0020FEF78AFE0F4B1322B3E7FFF70B
:1099900009FF0120FEF782FE0B4B1422ABE7FFF715
:1099A00001FF0020FEF77AFE0120FEF777FE064B4E
:1099B0001522A0E7FEF799FE034B1D709CE700BF40
:1099C00080380020583800208838002018380020BF
:1099D00015380020044B1B68DB0703D5034B1878B0
:1099E000FFF7F6BE704700BF7C38002088380020A3
:1099F0002DE9F04106460C46FEF7A1FE1C4B1D4921
:109A000005461D481B1ADB081B04324643F00300C1
:109A1000FCF7D2FF6DB9012C0DD0022C25D044B932
:109A20001648FDF708FC164B9C78164B1B78A34292
:109A300011D0BDE8F081124D6A782C7842B1124FF6
:109A40000E483A464FF48041FDF7DDFB00B93E7009
:109A50000C4BAA781A70002CEBD00C4B1B68002B17
:109A6000E7D02046BDE8F0411847054B5C78F2E7A7
:109A700068C802008ED0020040C8020038380020BA
:109A800078380020893800201438002084380020DD
:109A900000780221FFF7ACBF08B9FEF747BE0020EF
:109AA00070470000044B1B6813F0010301D0FFF75F
:109AB0008FBE1846704700BF7C38002038B51A4B5F
:109AC00018601A4B10F002040546196016D0184BA6
:109AD00018480E221A7000229A70012140F2333287
:109AE000FDF7F2F9044648B9FDF744FA044628B9EF
:109AF0000146114A1148FDF77BFB0446EB0711D5DF
:109B00000120FEF723FE6CB921460D4A0D48FDF7F2
:109B10006FFB044630B9BDE838400B4A0B480121C1
:109B2000FDF766BB204638BD7C3800208438002015
:109B3000783800209CD00200919A0200A8D0020040
:109B4000D5990200ACD002009D970200A4D002007B
:109B500038B9012A07D101290AD00246022909D0C1
:109B600059B1072070470129F8D1054B1A70704789
:109B70000E22FAE7024B5A707047014B9A707047F9
:109B80007838002010B5044690B9FEF7DDFD83005B
:109B900003F1A043D3F8002722F44032C3F8002792
:109BA000D3F8002742F44032C3F80027204610BD06
:109BB0000624FBE708B5012202210020FFF7C8FFB9
:109BC00008B1072815D1072202210120FFF7C0FFA5
:109BD00008B107280DD100210A220846FFF7B8FF77
:109BE00000210E220846FFF7B3FF10B1072808BF77
:109BF000002008BD0388102B10B502D0112B1ED0F9
:109C000010BD1A4C2168B1B901220846FFF7A0FF28
:109C100008B1072824D1072202210120FFF798FF6D
:109C200008B107281CD1042202210020FFF790FF71
:109C300008B1072814D1236801332360E0E70B4AF9
:109C40001368013B1360002BDAD1FFF7B3FF002844
:109C5000D6D0074B1B68002BD2D0BDE81040184768
:109C6000034B1B68002BE6D09847E4E790380020B0
:109C70008C38002008B50020FFF784FF08B10628C3
:109C800006D10120FFF77EFF10B1062808BF002093
:109C900008BD00000D4B10B518600C4629B101201D
:109CA000FFF7FAFE40B102232370094B1B6853B93A
:109CB000BDE81040FFF77EBFFFF7EEFE08B10B23B3
:109CC000F2E72070F1E7002010BD00BF8C380020C3
:109CD0009038002075DF704776DF70477FDF704770
:109CE0008FDF7047FDF75CB90146014801F00FBDF9
:109CF000183B00200388212B13B504460FD80F2BE7
:109D000011D9103B112B0ED8DFE803F00F260D41BF
:109D10000D0D0D0D0D0D0D330D0D0D480D4E3B2B85
:109D20004AD0562B48D002B010BD81882548002269
:109D300001F020FE08B1FDF733F90720FFF7B2FE6E
:109D400008B1FDF72DF9A1881F4800F05FFE00283B
:109D5000E9D0FDF725F9E6E71C4B1D48A2881D490F
:109D6000C01AC0080004237A40F00300FCF72DFE5F
:109D7000D9E7037A022BD6D1144B15481649C01ADD
:109D8000C008000440F00300FCF712FECBE70023FC
:109D90001A4685218088FFF7A1FFD8E700F1080166
:109DA0008088FFF797FFD2E7002301A98088ADF8EC
:109DB0000430FFF795FFCAE7A0881321FFF78CFF57
:109DC000C5E700BF183B0020682A002040C80200F9
:109DD00068C80200B0D00200DED0020008B5074813
:109DE00001F0A4FB08B1FDF7DBF80120FFF75AFEF4
:109DF00018B1BDE80840FDF7D3B808BD443B0020CA
:109E00001FB50378033B0446032B1FD8DFE803F09C
:109E10002F2002094068C8B104B0BDE81040FDF72A
:109E2000BFB841681E4C1F488B784A78001B8C795C
:109E300003944C7902940C790194C008C97800917C
:109E40000004194940F00300FCF7D5FD04B010BD33
:109E5000134B14481549C01AC008000440F0030011
:109E6000FCF7A6FD04B0BDE81040FFF7B7BF40689F
:109E7000037813F0600F07D100F096FA606804B021
:109E8000BDE8104000F034BA054B06480849C01A36
:109E9000C008000440F00300FCF78AFDEEE700BFB5
:109EA00040C8020068C80200FCD002002AD10200AB
:109EB0003AD1020070B50378012B044637D0022B4B
:109EC00026D023BB1D4C1E4D20882844FDF75AFB8D
:109ED000238801339BB21D44238015F8012C0A2AE4
:109EE00005D00D2A03D0174A12889A420FD8144D74
:109EF000154E22882946304601F0ECFC082804D093
:109F00001328F6D008B1FDF74BF80023238070BD6D
:109F10000E4B0F480F491B1ADB081B0443F00100CE
:109F2000FCF746FD6068BDE87040FDF739B8074BA7
:109F3000074809491B1ADB081B04EFE78839002092
:109F400094380020662A0020183B002068C80200D0
:109F500040C8020045D1020077D1020010B5044686
:109F60000020FFF79FFD08B1FDF71AF824B9FFF7AD
:109F700081FE08B1FDF714F8012010BD0A8840F6F3
:109F800077239A4213B50C4617D10D4B0D480E4955
:109F9000C01AC008000440F003000190FCF708FD5F
:109FA000A3880A4A0A490198033B9BB213801A46C8
:109FB00002B0BDE81040FCF708BD02B010BD00BF04
:109FC00040C8020068C80200A3D10200662A00202F
:109FD000BFD10200042808B506D00A2810D1BDE878
:109FE00008400020FEF764B8064B13215888FFF79D
:109FF00073FE30F0080303D0BDE80840FCF7D0BF83
:10A0000008BD00BF183B00202DE9F8430B78012B59
:10A0100006460D4623D0022B5FD0002B6BD1374B69
:10A02000374C3849E41AE408240444F00304204679
:10A03000FCF7BEFC698805F10E02304601F09AFC7F
:10A0400008B1FCF7ADFF304601F012FC08B1FCF797
:10A05000A7FF20462C49BDE8F843FCF7A9BC284CD3
:10A06000264B8E688F89DFF8AC90E41AE40824044C
:10A0700044F001040025BD4219D3F31913F8013C43
:10A080000D2B25D0DFF890803A463146404601F04E
:10A0900021FC054678B31128F6D002461B4920461C
:10A0A000FCF78AFC2846BDE8F843FCF779BF705DF1
:10A0B000FDF77EFA804648B11128F8D020462A469E
:10A0C0004946FCF779FC4046FCF76AFF0135D2E7C8
:10A0D0000A20FDF76DFA1128D3E7084B08480C4910
:10A0E000C01AC008000440F00300FCF761FCBDE8A2
:10A0F000F843FFF773BEBDE8F88300BF40C8020015
:10A1000068C80200E7D10200FBD102004FD2020072
:10A1100078D2020029D20200183B002008B5084975
:10A12000084800F041FE08B1FCF73AFF0548F72166
:10A1300000F04EFE18B1BDE80840FCF731BF08BD85
:10A140007D9F0200303B002000B54FF480418BB072
:10A150000020FCF799FA08B1FCF722FFFCF7D4F9CC
:10A16000FDF714F808B1FCF71BFF4B4D00F0B0F8F9
:10A170000FCD04AC0FC495E80300484B484A009348
:10A180004FF4807384E80300CDE902230193454A2C
:10A190000723694604A8FDF79DF908B1FCF700FF05
:10A1A00041490120FFF78AFC08B1FCF7F9FE04A938
:10A1B0000020FFF76FFD08B1FCF7F2FE4FF0A0435F
:10A1C0001022C3F808250420FEF768FA08220021AF
:10A1D00004A801F08EFF354C354B049304A8059478
:10A1E00000F0D6FB08B1FCF7DBFEFDF725FF08B158
:10A1F000FCF7D6FE01F016FC08B1FCF7D1FE0023F7
:10A2000004A90120049301F09BFC08B1FCF7C8FEEF
:10A2100004A801F067FD08B1FCF7C2FEFFF77EFF5E
:10A22000244B0493244B254804A9CDE9053401F0BF
:10A23000B9FA08B1FCF7B4FE102200210DEB0200C0
:10A2400001F057FF00238DF814301D4A1D480123EB
:10A2500004A98DF81C3001F00EF908B1FCF7A0FE3E
:10A26000194A1848032101F0DBF808B1FCF798FE01
:10A2700014480022042101F0EAF808B1FCF790FE2E
:10A28000124801F0C7FEFFF7A9FDFCF74DFA0028C0
:10A29000FBD1FDF7E7FEF8E7A8D20200943B0020CF
:10A2A000943C0020B59E0200D59F0200502A002059
:10A2B000E99C020009A00200E59C0200183B002076
:10A2C000019E0200443B0020D4D2020086D202004C
:10A2D000024A03480021FCF78BBF00BFEBA202003B
:10A2E0001CD302000220FEF7E5B9FFF7FBBF000018
:10A2F0002DE9F0411A4E0546002400F1030806221C
:10A300003119404601F053FE38B33E3440F61C4349
:10A310009C42F4D1134E00233E2202FB03F4A15DC4
:10A32000C1B9114A1368271D3744013313603846F9
:10A3300001230622335501F0DCFE0A344146062291
:10A34000384601F0ADFEAA8BA9693019BDE8F0418D
:10A3500001F0A6BE0133322BDFD1BDE8F08100BF92
:10A36000343E0020303E00202C3E002070B50023FB
:10A37000461C9A4204DC12B2002300F8123070BD71
:10A38000CC5C9F2C94BF3025372505EB141504F0C9
:10A390000F040A2C00F8135034BF302537252C4405
:10A3A00006F813400133E4E770B5044698B0C57C65
:10A3B000227FA16907A8FFF7D9FFCDE90450237ACE
:10A3C0000393E3790293A37901936379009323794B
:10A3D000E2780A490A480A4D01F03CFE00242E4664
:10A3E000304601F0DBFEA04201D818B070BD15F870
:10A3F000010BFDF7DDF80134F2E700BFD8D202000F
:10A40000943D00200369C1688B429DBF8268D218C9
:10A4100002F1FF3203F1FF3394BF501A581A70470C
:10A420002DE9F843D0E902940546A9EB04084068F9
:10A43000904520440F46144404D901F031FEEC60ED
:10A44000BDE8F8834246A4EB090401F029FE6868E0
:10A45000224607EB0801F0E72DE9F843C5680646F8
:10A46000894617464FF000083469B3687068A54202
:10A4700028BFE418013C621B5C1BBC4228BF3C4661
:10A48000944228BF144649462844224601F008FE5B
:10A49000B3682544AB4208BF00253F1BA044A1443C
:10A4A000F560E1D14046BDE8F883000010B5114CDD
:10A4B000114AA2610223C4E90433104BE361A26490
:10A4C0004FF400730E4A0F492362E2640023102206
:10A4D000E01DA3626362E362A3656365E3652265D1
:10A4E00001F03AFE0849204601F036FE2023A37110
:10A4F00010BD00BF704A002020D30200F84A00209F
:10A50000E84A002029D302002DD30200F8B5184CE8
:10A51000182300FB033503FB00402544C46A012CCB
:10A520000F4616460FD0022C1AD0F4B92846FFF772
:10A5300069FF864205D8324639462846FFF770FF44
:10A5400034462046F8BD2846FFF75CFF8642344675
:10A5500028BF0446224639462846FFF761FFF0E748
:10A560002846BDE8F840FFF777BF0024E9E700BFC1
:10A57000704A0020FFF79ABF64DF704730B5C8B15A
:10A58000F2B10024651C8D4206DA1588A54212D866
:10A5900005196D789D420ED1A14211D9005D48B1D7
:10A5A000013880B230B10234A3B210FA84F4A1426F
:10A5B00006DB138030BD055D01352C44A4B2E1E714
:10A5C0000020F7E7F0B587B0002306460C4610469A
:10A5D000ADF8063002AA10230DF105018DF8053003
:10A5E000FFF7CAFF16B9002007B0F0BD0028FAD166
:10A5F0009DF80550042D2BD0102D2BD0022DF3D11A
:10A600000323BDF806207AB90DF106022146304633
:10A61000FFF7B4FFBDF806302BB92B460DF106024B
:10A620003046FFF7ABFF0446BDF80670002FDAD0C6
:10A630000025AC42D7D9E8199DF8052002A930447D
:10A6400001F0B5FC48B19DF805301D44ADB2F0E70E
:10A650000523D6E706250723D3E70120C4E700003A
:10A6600030B50B4B19680B4B0022914201D10020F1
:10A6700009E09D788478A54206D11D880488A5420A
:10A6800002D1054B186830BD01320433EDE700BF3D
:10A69000004D0020044D0020F84C00202DE9F84F1B
:10A6A00090F8C6A24FF0760B04460AFB0B008846D2
:10A6B0009146FFF7D5FF074670B3D4F8CC52052D6D
:10A6C0002AD804EBC5165A46A6F8D2920BFB0A41CB
:10A6D00006F5357001F0E4FCB8F1000F14BF00235B
:10A6E000022386F8D0320D4BC6F84C731A68013538
:10A6F0009542C4F8CC521D460ED104F5347600279D
:10A70000F36F304698472B6801379F4206F1800669
:10A71000F6D30023C4F8CC32BDE8F88F004D0020FA
:10A7200030B5A1B004460D467C22002101A801F0FD
:10A73000E0FC03238DF80430044BADF806501B6891
:10A7400002940BB101A8984721B030BDF84C00200D
:10A750002DE9F041074691F8C60276234FF0000834
:10A76000A0B081F8C88200FB03100C461546FFF725
:10A7700077FF064660B17C22414601A801F0B9FC92
:10A7800001238DF80430ADF80650029701A8B047B8
:10A7900029462046FFF7C4FF20B0BDE8F081000045
:10A7A00030B58BB0044620220D4602A8002101F0EE
:10A7B000A0FC04220DEB0200002101F09AFC94F8A9
:10A7C000C53294F8C62213B3013B7621DBB2514364
:10A7D000122000FB031323445B8A01339BB2ADF8C4
:10A7E0000430762303FB024202A91389ADF8063038
:10A7F00003238DF80830019BCDE90543064B0493F4
:10A80000064B2A46186800F0DFFC0BB030BD7623FB
:10A8100003FB0243DB88E2E751A702001C4D002046
:10A82000F0B5044689B020220D466846002101F0AB
:10A8300060FC94F8C7321E4A01331268DBB29342BF
:10A8400084F8C7324FF000022BD294F8C632194F69
:10A8500084F8C5220133DBB2762113FB01F057F8EF
:10A86000237084F8C6322618275001FB0343327147
:10A870001B68CDF81230104B029302220F4B8DF85B
:10A8800000200122ADF81020186803942A4669467A
:10A8900000F09AFC18B12A462146FFF759FF09B08B
:10A8A000F0BD84F8C82229462046FFF739FFF6E7B5
:10A8B000004D0020044D002051A702001C4D002037
:10A8C0002DE9F047044688B00D46164600212022A7
:10A8D000684601F00EFC94F8C62294F8C51276235F
:10A8E00012FB03F2A018122790F804C017FB0123F3
:10A8F00001F1010E0A33E645234411D004F11C098D
:10A9000000F1220E0CF1FF389144CAB294450BD9E4
:10A9100088451B890ED102899A421BD1002312E07F
:10A920001B890289934215D101232B70002008B0A6
:10A93000BDE8F08707FB01FA01333EF80A20934295
:10A940001DD109EB0A0394F8C522013284F8C5220F
:10A950000131DAE701339BB2ADF810300A4B0293B4
:10A9600000210A4B297004218DF80010ADF8122047
:10A97000186803943246694600F026FCD7E7013A8E
:10A980009BB292B2E8E700BF51A702001C4D002025
:10A9900010B570B1026862B1436853B10649002036
:10A9A0000860064901240C7005490A60054A1360D5
:10A9B00010BD0E20FCE700BF004D0020FC4C002025
:10A9C000F84C00201C4D002010B5044680B10C4B03
:10A9D0001B787BB1FFF744FE70B90A4A1368052B58
:10A9E0000CD80949246841F823400133136010BD95
:10A9F0000E20FCE70820FAE70020F8E70420F6E73D
:10AA0000FC4C0020004D0020044D0020F0B50D4608
:10AA10008BB0044600283BD0204B1B78002B39D04C
:10AA20001F4B1B68002B35D090F8C812002933D17A
:10AA30004FF4BA621B4F019101F05BFB0199202298
:10AA400002A801F056FB3868294600F05DFCE8B921
:10AA5000154BC4F8CC0284F8C502A4F8C6021868E5
:10AA6000206002238DF808300126104BCDF81A0023
:10AA7000A4F8CA523868ADF818602A4602A90594AD
:10AA8000049300F0A1FB08B984F8C8620BB0F0BDD4
:10AA90000E20FBE70820F9E71120F7E7FC4C002027
:10AAA000004D00201C4D0020044D002051A7020045
:10AAB0002DE9FF410C46054660B159B1904B1B781A
:10AAC00043B10388322B64D007D8112B00F00A81E0
:10AAD000302B20D004B0BDE8F081332BFAD182882E
:10AAE000B1F8CA329342F5D1C68891F8C6C291F83E
:10AAF000C572002E00F0C080762101FB0C4C0023B3
:10AB00009CF804108DF80F307B1C8B4200F0E48021
:10AB100084F8C532A2E08388B1F8CA229A42D9D11A
:10AB2000C3886BBB91F8C632762202FB031302691D
:10AB3000C3F8062091F8C432827A1344062B0CDC49
:10AB400081F8C432A9882046FFF72AFE0028C1D028
:10AB5000AA882146FFF7FCFDBCE7062381F8C43232
:10AB60006848694B6949C01AC008000440F00200F7
:10AB70000190FBF71DFF66490198FBF719FFE1E71C
:10AB800000212046FFF78AFDA9882046FFF748FEEE
:10AB9000A0E78288B1F8CA329A429BD1C388002BC1
:10ABA00058D191F8C672762317FB03F701EB07081B
:10ABB000837A98F804603344062B26DC88F8043046
:10ABC000334603EBC30207EB420205F10C062244B5
:10ABD000002198F80400834206F10A0602F11202ED
:10ABE00027D31222013B02FB034394F8C6227621AD
:10ABF0003B4401FB0242598A138999422AD2062812
:10AC000028D0A98884F8C5029DE7062388F8043077
:10AC10003C483D4BCA5B3F49C01AC008000440F0A5
:10AC200002000190FBF7C8FE3B490198FBF7C0FE0C
:10AC3000C6E73046013350F80ACD42F808CCD0F8C8
:10AC400004C042F804CC0089108051809180D180EA
:10AC50001181BEE7002384F8C532AA880DF10F01E7
:10AC60002046FFF72DFE00287FF472AF9DF80F30CD
:10AC7000002B3FF42FAF32E0762303FB0CF11223BD
:10AC800003FB0713B0F80AE023447645BFF434AF62
:10AC9000C189A1F52451082908D8DFE801F014176B
:10ACA0000507070707071A0081899982998A39B130
:10ACB000D98A29B1198B19B1598B00297FF41CAF9E
:10ACC00001360630E1E78189D982EFE7818919836E
:10ACD000ECE781895983E9E701238DF80F30AA88D1
:10ACE00001214EE7B1F8CA3282889A4201BF00239F
:10ACF00081F8C8324FF6FF73A1F8CA32EAE600BF06
:10AD0000FC4C002080C8020040C8020034D302007E
:10AD100053D3020098D30200DED3020090DF7047C5
:10AD2000A5DF7047B5DF70477FB50023ADF8081089
:10AD3000ADF80A106A4602A9064603930093ADF8DF
:10AD40000430FFF7EBFF054600B3124B124CE41A38
:10AD5000E408FDF725FB240444F0010403460F49F1
:10AD600032462046FBF731FEBDF80020BDF8023028
:10AD700052EA030103D00A492046FBF726FEBDF83C
:10AD800004201AB107492046FBF716FE284604B0F6
:10AD900070BD00BF40C80200A0C8020044D4020039
:10ADA0008ED40200CDD4020080B14FF0F7130360BF
:10ADB000FB230371F723C3801723038141F6FB3282
:10ADC0000023016143818281184670470E2070473D
:10ADD00030B1A1F11703E02B04D841800020704767
:10ADE0000E2070470720704713B5034680880C4635
:10ADF000B8B91A88242A00F0968014D8112A71D084
:10AE0000232A00F09E80102A3BD0A37A4BB1E18820
:10AE10000020FFF785FF002840F099804FF48073F1
:10AE2000638102B010BD3A2A65D0552AEDD1DB8886
:10AE3000C988A072172B38BF17238B4228BF0B4637
:10AE40002381FFF76FFF60B1FDF7AAFA484B49492C
:10AE5000024649481B1ADB081B0443F00100FBF7BC
:10AE6000ABFDE37A002BD0D12369002BCDD040F687
:10AE7000772200922289ADF804206946204698473F
:10AE8000C3E7DB7B0A790A73012B13D0022B14D0A2
:10AE9000E18823898B4205D20020FFF741FF70B97A
:10AEA0000123E372217B637B8B42AED20020FFF74C
:10AEB0003BFFAAE70B88E380EAE74B88FBE7112812
:10AEC00002D10123A372EDE7FDF76AFA284B2B4963
:10AED000024629481B1ADB081B0443F00100FBF75C
:10AEE0006BFDDFE7F723CB8017230B8141F6FB33A4
:10AEF00048818B8189E75B89CA88934228BF1346C2
:10AF0000172B0A6938BF17230B814AB1C97A39B1A7
:10AF100040F677210091ADF804306946204690470D
:10AF20000023638171E71A7A0B694A73002B3FF49F
:10AF30006CAF4DF67A218DF8050000918DF8042054
:10AF40009BE7197A237B994228BF1946AFE711285E
:10AF50003FF467AFFDF724FA054B0849024606485F
:10AF60001B1ADB081B0443F00100FBF725FD58E723
:10AF7000A0C8020054D5020040C8020023D5020038
:10AF80009BDF70479DDF70479EDF7047A1DF7047F2
:10AF9000A3DF7047AEDF704730B5048800239AB254
:10AFA000944206D9456835F813508D4203F10103E8
:10AFB000F5D1104630BD8B6910B50C4619881029A3
:10AFC00012D80231FCF7DDFF606078B1A16900237F
:10AFD0000222FDF718F8A26960681288E16902236D
:10AFE000FDF711F8002010BD0920FCE70420FAE766
:10AFF00010B50C46C98A10290AD8FCF7C2FF606058
:10B0000040B1E28AA1690023FCF7FDFF002010BDDA
:10B010000920FCE70420FAE7F0B58BB000220446D3
:10B020000DF10601C068124EFDF711F91425024614
:10B030000AB10BB0F0BDBDF80670A36805FB073779
:10B0400002A93846FDF703F938B10022E0680DF196
:10B050000601FDF7FCF80246EAE79DF8083056F8CD
:10B06000233013B10398FCF776FF0022E8E700BF16
:10B0700000D60200F7B505460C4C0D480092241A84
:10B08000E40824040B460F4616460A492A7844F081
:10B090000100FBF7A4FCAB6833B1E9683A463046DF
:10B0A00003B0BDE8F040184703B0F0BDA8C80200E7
:10B0B00040C8020090D50200F0B58FB00D460122C5
:10B0C00006A90646FDF7C3F8044690B99DF8183066
:10B0D000052B65D8DFE803F0030F1C24292EBDF8EB
:10B0E0002A20BDF828102846FFF750FF0446112CEF
:10B0F00040D10FB0F0BD02A90798BDF82E200C91E9
:10B100000023FCF78AFF0AA92846FFF741FFEDE775
:10B11000BDF828100DF12A022846FFF731FFE5E7B8
:10B120000AA92846FFF72EFFE0E70AA92846FFF7FD
:10B130002BFFDBE70DF1060402AB214607980D93C8
:10B1400002220023FCF769FFBDF806200D9907983D
:10B150000C940223FCF761FF0AA92846BDF806708B
:10B16000FFF718FF04460028C1D1BDF80630BB42E6
:10B1700018BF0C249DF818200F4B53F8223013B140
:10B180000798FCF7E8FE002206A93046FDF75FF8B5
:10B19000002CAED02246294606A8FFF76BFFA8E791
:10B1A0000648074B07491B1ADB081B0443F0020043
:10B1B000FBF7FEFBDEE700BF00D6020040C802003E
:10B1C000A8C80200DAD502002DE9F8430F4614465C
:10B1D000054620B94FF00E084046BDE8F883002927
:10B1E000F8D0FFF719FF3B78052B6AD8214628468F
:10B1F000FFF7D2FE2B88834263D014264643A8680B
:10B200003044FDF71DF8002860D03B78052B3BD873
:10B21000DFE803F00311171E242A7A8A398A2046B0
:10B22000FFF7B4FE112851D058B3024621463846E4
:10B23000FFF720FF25E007F110012046FFF7A8FEE9
:10B24000F0E7398A07F112022046FFF799FEE9E795
:10B2500007F110012046FFF795FEE3E707F1100123
:10B260002046FFF791FEDDE7BB6907F1100120469C
:10B27000B3F80080FFF78EFE30BBBB691B884345E7
:10B280000DD14FF00008A7E71B4B1C481C49C01A02
:10B29000C008000440F00200FBF78AFBF1E70C2035
:10B2A000C3E72869002895D0394698478046A0B161
:10B2B00092E73B7859F82330BBB17868FCF74BFE36
:10B2C00013E04FF0070887E71128AED10D4A3B780D
:10B2D00052F823309146002BE3D1A8683946304418
:10B2E000FCF758FF80460028E3D1A8682146304487
:10B2F000FFF7E2FE70E700BF40C80200A8C80200E6
:10B30000DAD5020000D60200F8B50D46044678B33F
:10B31000FFF782FE29462046FFF73EFE2288824242
:10B3200011D00020F8BD616831F81310814203F19B
:10B3300001030BD0208800234FF6FF769AB2824299
:10B340000BD30420EEE700234FF6FF7099B28A4238
:10B35000E9D82069FCF7FDFDECE761685A0001EBD4
:10B3600043078A5AB24203F10103E7D13D80D8E78F
:10B370000E20D7E737B50C4608B301B30588112D69
:10B3800015D181882046FFF707FE2388ADF8060017
:10B39000834214D0112D14D163684FF6FF7223F845
:10B3A00010200DF10601E068FCF7F4FE07E0A5F1BE
:10B3B00030031F2BE5D9A5F150031F2BE1D903B0B2
:10B3C00030BDA368142202FB0030FFF775FEF6E7DC
:10B3D0008ADF70478BDF70478CDF704730B5037AA8
:10B3E00089B004460D46CBB1837C0193FFF7F2FF91
:10B3F0001422002103A800F07CFE019B04F10A0244
:10B4000004F11401A81CFFF7E7FF05238DF80C30A9
:10B41000049018B1636A0BB103A8984709B030BD16
:10B4200010B5034668B162B103290CD1007960B947
:10B430001C8811888C4203D00121197112681A608E
:10B4400010BD0E20FCE70720FAE70420F8E750B112
:10B45000CB060AD011F0040116BF012341714371DC
:10B460008271002070470E20704707207047007DD2
:10B47000C0F3C0007047F8B50D460446002852D00E
:10B4800042620021082200F034FE002D38D02B79D2
:10B4900023722B7BA3742B68FBB104F1140203F11C
:10B4A000080718685968164603C60833BB42324677
:10B4B000F7D1186830609B88B380AA68C2B113685E
:10B4C000C4F80A305368C4F80E3004F12803A364AA
:10B4D0001F23A4F84C300020F8BD636903F0E30398
:10B4E00043F4F00343F4827363613C23A361E4E714
:10B4F000062363811823E3604FF4C8732382E4E7D3
:10B500006369257203F0E30343F4F00343F48273A9
:10B5100063613C23A361062363811823E3604FF436
:10B52000C8732382D1E70E20D6E7000010B5044689
:10B5300086B048B31422002101A800F0DAFDFFF71D
:10B5400049FF2046FFF793FF30B1636A23B1012220
:10B550008DF8042001A8984704F1480104F1140073
:10B56000FFF736FF044630F008000BD00748084BC1
:10B5700008491B1ADB081B0443F001002246FBF7B5
:10B580001BFA204606B010BD0E20FBE740C80200A3
:10B5900090C8020018D602002DE9F04F06468BB085
:10B5A00036F8083B1B2B07460C4600F094801D2BF9
:10B5B00016D0102B32D1142200210DEB020000F026
:10B5C00098FD06238DF81430BB88ADF81C3004F1CB
:10B5D00014030993636A0696002B40F08F801DE0E8
:10B5E000142200210DEB020000F083FD04F114038E
:10B5F00020460993FFF73BFF04F1480A88B1022374
:10B600008DF8143005A8636A0696984751460020C5
:10B61000FFF7DEFE31462046FFF7E0FE0BB0BDE847
:10B62000F08F94F8058094F80690B8F1000F45D09B
:10B6300094F804B0B98C224604EB8B030546934280
:10B640000CD1B9F1000F18D0AB4518D19DF81C30C2
:10B6500043F004038DF81C30012313E0386A019194
:10B66000CDE90223FEF7AEFFDDE90112039B00B333
:10B670000135EDB2B9F1000F1ED1002DE6D14FF02A
:10B680000008434601220696B9F1000F19D09A42EC
:10B690001DD100238DF8143031462046FFF79EFE61
:10B6A000636A0BB105A8984751460020FFF790FE4A
:10B6B000B4E7B9F1000FC7D10432C0E743464246B0
:10B6C000E1E7B8F1000F02D08DF81490E4E703230E
:10B6D0008DF81430E4E714220DEB0200002100F095
:10B6E00008FD3A7A012A99D1636A002B96D0042189
:10B6F00014348DF8141009948DF8182005A8984773
:10B700008CE762DF70470B6903B118477047F0B5EB
:10B710000C4687B014220546002101A800F0E9FC80
:10B72000227852BBA388012B27D1A1792B7899428B
:10B7300023D194F808C0BDF81260BDF81400BDF81C
:10B740001670122111FB0C4123469446994216D1E2
:10B75000BCF1000F01D0ADF816701AB1ADF812604F
:10B76000ADF81400EB6843B16288ADF80620002202
:10B770008DF8042001A92846984707B0F0BDB3F81A
:10B780000EE0BEF1020F04D0BEF1030F05D012335C
:10B79000DCE7DF8A4FF0010CF9E7DE8A188B012223
:10B7A000F5E70000F0B5184B87B002AA04460D4635
:10B7B00003F1100C174618685968164603C608337B
:10B7C00063453246F7D1ECB1E5B1AB68D3B1214660
:10B7D0003846FFF796FF98B923788DF80630012395
:10B7E000ADF804304FF6FF7363802B68E3606B683D
:10B7F0002361AB68A0802081636101A8FFF7E4F8B2
:10B8000007B0F0BD0E20FBE77CD6020010B5034662
:10B8100086B00846F9B1F3B149884FF6FF729142FC
:10B8200019D09C888C4216D11988112915D0392934
:10B8300011D182887AB1598991420CD1C26852B132
:10B8400001218DF8041003F11001DB890391ADF89B
:10B85000103001A9904706B010BDC368002BFAD084
:10B8600002218DF80410428001A99847F3E70000F7
:10B8700010B504468AB030B342884FF6FF739A423F
:10B8800023D0C3880BB32022002102A800F031FC92
:10B890000123ADF804308DF808300D4B62886069E3
:10B8A000CDE90434E388ADF81A304FF40033079340
:10B8B00001AB089302A940F20113ADF81830FFF76D
:10B8C00083FC0AB010BD0E20FBE70820F9E700BF9B
:10B8D00007B7020070B50E4688B01546044600282A
:10B8E0003CD020220021684600F003FCF42D0CD946
:10B8F0001B4B1C481C49C01AC008000440F0020041
:10B90000FBF756F8072008B070BD62884FF6FF734A
:10B910009A420BD1124B13481449C01AC0080004B4
:10B9200040F00200FBF744F80820ECE701238DF813
:10B9300000300F4B6069ADF81650CDE90234238911
:10B94000ADF812300023ADF8143069464FF481731E
:10B950000696ADF81030FFF737FCD4E70E20D2E79B
:10B9600040C8020088C8020045D6020057D602002F
:10B9700007B7020050B141802AB15388C3801388B1
:10B980008380938803814069FFF7BEBC0E20704717
:10B9900010DF704713B5044609496846FCF7A5FC5B
:10B9A000019808B902B010BDD0E9002120469047A7
:10B9B00018B16846FCF7A3FCF2E71120F2E700BFDC
:10B9C00098D6020013B5044607496846FCF78DFC7B
:10B9D000019B0BB902B010BD2046D3E9002190476E
:10B9E0006846FCF78CFCF3E7B0D602000B4991F8EF
:10B9F00016335A09EC231341DB0706D5084B9A6826
:10BA00003AB94FF480030B60704742F20200FBF733
:10BA1000C7BA1A6842F480021A60704700E100E079
:10BA200010370020F7B5194F3C7864BB184E01253C
:10BA300020463570FFF7AEFF112821D02046FFF7D2
:10BA4000C1FF144B8DF80340186801900DF10300FD
:10BA5000FBF7D6FD104901A8FFF79AFF0446B0FA9C
:10BA600080F0400938709DF80300FBF7EDFD3CB90C
:10BA70000A4B34701C70FFF7B9FF2846FFF7A2FF8E
:10BA8000204603B0F0BD0824FAE700BF214D002096
:10BA9000204D002094D60200BD6F0200224D0020F0
:10BAA000014B1878704700BF214D002007B50849A9
:10BAB0006846FCF71AFC019B13B903B05DF804FB60
:10BAC000D3E9002090476846FCF719FCF3E700BF74
:10BAD000A4D60200FFF7EABF60DF704769DF704756
